{
  "_format": "hh-sol-artifact-1",
  "contractName": "LUSDUsdToLUSDEth",
  "sourceName": "contracts/Integrations/LUSDUsdToLUSDEth.sol",
  "abi": [
    {
      "inputs": [],
      "stateMutability": "nonpayable",
      "type": "constructor"
    },
    {
      "inputs": [],
      "name": "ETH_USD",
      "outputs": [
        {
          "internalType": "contract IPriceFeed",
          "name": "",
          "type": "address"
        }
      ],
      "stateMutability": "view",
      "type": "function"
    },
    {
      "inputs": [],
      "name": "LUSD_USD",
      "outputs": [
        {
          "internalType": "contract IPriceFeed",
          "name": "",
          "type": "address"
        }
      ],
      "stateMutability": "view",
      "type": "function"
    },
    {
      "inputs": [],
      "name": "latestAnswer",
      "outputs": [
        {
          "internalType": "int256",
          "name": "",
          "type": "int256"
        }
      ],
      "stateMutability": "view",
      "type": "function"
    }
  ],
  "bytecode": "0x608060405234801561001057600080fd5b506101fb806100206000396000f3fe608060405234801561001057600080fd5b50600436106100415760003560e01c806350d25bcd146100465780636260f55b14610060578063a00d9b7314610084575b600080fd5b61004e61008c565b60408051918252519081900360200190f35b610068610195565b604080516001600160a01b039092168252519081900360200190f35b6100686101ad565b6000735f4ec3df9cbd43714fe2740f5e3616155c5b84196001600160a01b03166350d25bcd6040518163ffffffff1660e01b815260040160206040518083038186803b1580156100db57600080fd5b505afa1580156100ef573d6000803e3d6000fd5b505050506040513d602081101561010557600080fd5b5051604080516350d25bcd60e01b81529051733d7ae7e594f2f2091ad8798313450130d0aba3a0916350d25bcd916004808301926020929190829003018186803b15801561015257600080fd5b505afa158015610166573d6000803e3d6000fd5b505050506040513d602081101561017c57600080fd5b5051670de0b6b3a7640000028161018f57fe5b05905090565b735f4ec3df9cbd43714fe2740f5e3616155c5b841981565b733d7ae7e594f2f2091ad8798313450130d0aba3a08156fea2646970667358221220ef996198431524f0c40f8a6c00cc56e8430d972c86eb78e8f9f9ec99319c93e964736f6c634300060b0033",
  "linkReferences": {},
  "deployedLinkReferences": {}
}